{
  "contractName": "Slots",
  "abi": [
    {
      "inputs": [
        {
          "internalType": "uint256",
          "name": "initialSupply",
          "type": "uint256"
        }
      ],
      "stateMutability": "nonpayable",
      "type": "constructor"
    },
    {
      "anonymous": false,
      "inputs": [
        {
          "indexed": true,
          "internalType": "address",
          "name": "owner",
          "type": "address"
        },
        {
          "indexed": true,
          "internalType": "address",
          "name": "spender",
          "type": "address"
        },
        {
          "indexed": false,
          "internalType": "uint256",
          "name": "value",
          "type": "uint256"
        }
      ],
      "name": "Approval",
      "type": "event"
    },
    {
      "anonymous": false,
      "inputs": [
        {
          "indexed": false,
          "internalType": "uint256",
          "name": "amount",
          "type": "uint256"
        }
      ],
      "name": "LogSpin",
      "type": "event"
    },
    {
      "anonymous": false,
      "inputs": [
        {
          "indexed": false,
          "internalType": "uint256",
          "name": "amount",
          "type": "uint256"
        }
      ],
      "name": "LogStake",
      "type": "event"
    },
    {
      "anonymous": false,
      "inputs": [
        {
          "indexed": false,
          "internalType": "uint256",
          "name": "amount",
          "type": "uint256"
        }
      ],
      "name": "LogUnstake",
      "type": "event"
    },
    {
      "anonymous": false,
      "inputs": [
        {
          "indexed": true,
          "internalType": "address",
          "name": "from",
          "type": "address"
        },
        {
          "indexed": true,
          "internalType": "address",
          "name": "to",
          "type": "address"
        },
        {
          "indexed": false,
          "internalType": "uint256",
          "name": "value",
          "type": "uint256"
        }
      ],
      "name": "Transfer",
      "type": "event"
    },
    {
      "inputs": [
        {
          "internalType": "address",
          "name": "owner",
          "type": "address"
        },
        {
          "internalType": "address",
          "name": "spender",
          "type": "address"
        }
      ],
      "name": "allowance",
      "outputs": [
        {
          "internalType": "uint256",
          "name": "",
          "type": "uint256"
        }
      ],
      "stateMutability": "view",
      "type": "function",
      "constant": true
    },
    {
      "inputs": [
        {
          "internalType": "address",
          "name": "spender",
          "type": "address"
        },
        {
          "internalType": "uint256",
          "name": "amount",
          "type": "uint256"
        }
      ],
      "name": "approve",
      "outputs": [
        {
          "internalType": "bool",
          "name": "",
          "type": "bool"
        }
      ],
      "stateMutability": "nonpayable",
      "type": "function"
    },
    {
      "inputs": [
        {
          "internalType": "address",
          "name": "account",
          "type": "address"
        }
      ],
      "name": "balanceOf",
      "outputs": [
        {
          "internalType": "uint256",
          "name": "",
          "type": "uint256"
        }
      ],
      "stateMutability": "view",
      "type": "function",
      "constant": true
    },
    {
      "inputs": [],
      "name": "bronzeMembership",
      "outputs": [
        {
          "internalType": "uint256",
          "name": "",
          "type": "uint256"
        }
      ],
      "stateMutability": "view",
      "type": "function",
      "constant": true
    },
    {
      "inputs": [],
      "name": "decimals",
      "outputs": [
        {
          "internalType": "uint8",
          "name": "",
          "type": "uint8"
        }
      ],
      "stateMutability": "view",
      "type": "function",
      "constant": true
    },
    {
      "inputs": [
        {
          "internalType": "address",
          "name": "spender",
          "type": "address"
        },
        {
          "internalType": "uint256",
          "name": "subtractedValue",
          "type": "uint256"
        }
      ],
      "name": "decreaseAllowance",
      "outputs": [
        {
          "internalType": "bool",
          "name": "",
          "type": "bool"
        }
      ],
      "stateMutability": "nonpayable",
      "type": "function"
    },
    {
      "inputs": [],
      "name": "goldMembership",
      "outputs": [
        {
          "internalType": "uint256",
          "name": "",
          "type": "uint256"
        }
      ],
      "stateMutability": "view",
      "type": "function",
      "constant": true
    },
    {
      "inputs": [
        {
          "internalType": "address",
          "name": "spender",
          "type": "address"
        },
        {
          "internalType": "uint256",
          "name": "addedValue",
          "type": "uint256"
        }
      ],
      "name": "increaseAllowance",
      "outputs": [
        {
          "internalType": "bool",
          "name": "",
          "type": "bool"
        }
      ],
      "stateMutability": "nonpayable",
      "type": "function"
    },
    {
      "inputs": [],
      "name": "name",
      "outputs": [
        {
          "internalType": "string",
          "name": "",
          "type": "string"
        }
      ],
      "stateMutability": "view",
      "type": "function",
      "constant": true
    },
    {
      "inputs": [],
      "name": "owner",
      "outputs": [
        {
          "internalType": "address",
          "name": "",
          "type": "address"
        }
      ],
      "stateMutability": "view",
      "type": "function",
      "constant": true
    },
    {
      "inputs": [],
      "name": "randomResult",
      "outputs": [
        {
          "internalType": "uint256",
          "name": "",
          "type": "uint256"
        }
      ],
      "stateMutability": "view",
      "type": "function",
      "constant": true
    },
    {
      "inputs": [
        {
          "internalType": "bytes32",
          "name": "requestId",
          "type": "bytes32"
        },
        {
          "internalType": "uint256",
          "name": "randomness",
          "type": "uint256"
        }
      ],
      "name": "rawFulfillRandomness",
      "outputs": [],
      "stateMutability": "nonpayable",
      "type": "function"
    },
    {
      "inputs": [],
      "name": "silverMembership",
      "outputs": [
        {
          "internalType": "uint256",
          "name": "",
          "type": "uint256"
        }
      ],
      "stateMutability": "view",
      "type": "function",
      "constant": true
    },
    {
      "inputs": [],
      "name": "symbol",
      "outputs": [
        {
          "internalType": "string",
          "name": "",
          "type": "string"
        }
      ],
      "stateMutability": "view",
      "type": "function",
      "constant": true
    },
    {
      "inputs": [],
      "name": "totalStaked",
      "outputs": [
        {
          "internalType": "uint256",
          "name": "",
          "type": "uint256"
        }
      ],
      "stateMutability": "view",
      "type": "function",
      "constant": true
    },
    {
      "inputs": [],
      "name": "totalSupply",
      "outputs": [
        {
          "internalType": "uint256",
          "name": "",
          "type": "uint256"
        }
      ],
      "stateMutability": "view",
      "type": "function",
      "constant": true
    },
    {
      "inputs": [
        {
          "internalType": "address",
          "name": "recipient",
          "type": "address"
        },
        {
          "internalType": "uint256",
          "name": "amount",
          "type": "uint256"
        }
      ],
      "name": "transfer",
      "outputs": [
        {
          "internalType": "bool",
          "name": "",
          "type": "bool"
        }
      ],
      "stateMutability": "nonpayable",
      "type": "function"
    },
    {
      "inputs": [
        {
          "internalType": "address",
          "name": "sender",
          "type": "address"
        },
        {
          "internalType": "address",
          "name": "recipient",
          "type": "address"
        },
        {
          "internalType": "uint256",
          "name": "amount",
          "type": "uint256"
        }
      ],
      "name": "transferFrom",
      "outputs": [
        {
          "internalType": "bool",
          "name": "",
          "type": "bool"
        }
      ],
      "stateMutability": "nonpayable",
      "type": "function"
    },
    {
      "inputs": [],
      "name": "getRandomNumber",
      "outputs": [
        {
          "internalType": "bytes32",
          "name": "requestId",
          "type": "bytes32"
        }
      ],
      "stateMutability": "nonpayable",
      "type": "function"
    },
    {
      "inputs": [
        {
          "internalType": "address",
          "name": "_member",
          "type": "address"
        }
      ],
      "name": "getMembership",
      "outputs": [
        {
          "internalType": "uint256",
          "name": "level",
          "type": "uint256"
        }
      ],
      "stateMutability": "view",
      "type": "function",
      "constant": true
    },
    {
      "inputs": [
        {
          "internalType": "address",
          "name": "_member",
          "type": "address"
        }
      ],
      "name": "getBalance",
      "outputs": [
        {
          "internalType": "uint256",
          "name": "balance",
          "type": "uint256"
        }
      ],
      "stateMutability": "view",
      "type": "function",
      "constant": true
    },
    {
      "inputs": [
        {
          "internalType": "uint256",
          "name": "amount",
          "type": "uint256"
        }
      ],
      "name": "stake",
      "outputs": [],
      "stateMutability": "payable",
      "type": "function",
      "payable": true
    },
    {
      "inputs": [
        {
          "internalType": "uint256",
          "name": "amount",
          "type": "uint256"
        }
      ],
      "name": "unstake",
      "outputs": [],
      "stateMutability": "payable",
      "type": "function",
      "payable": true
    },
    {
      "inputs": [
        {
          "internalType": "uint256",
          "name": "amount",
          "type": "uint256"
        }
      ],
      "name": "spin",
      "outputs": [],
      "stateMutability": "payable",
      "type": "function",
      "payable": true
    },
    {
      "inputs": [],
      "name": "getTokens",
      "outputs": [],
      "stateMutability": "payable",
      "type": "function",
      "payable": true
    },
    {
      "inputs": [
        {
          "internalType": "uint256",
          "name": "amount",
          "type": "uint256"
        }
      ],
      "name": "spinOwner",
      "outputs": [],
      "stateMutability": "payable",
      "type": "function",
      "payable": true
    }
  ],
  "bytecode": "0x60c06040523480156200001157600080fd5b50604051620040ed380380620040ed8339818101604052810190620000379190620006bf565b73dd3782915140c8f3b190b5d67eac6dc5760c46e973a36085f69e2889c224210f603d836748e7dc00886040518060400160405280600581526020017f536c6f74730000000000000000000000000000000000000000000000000000008152506040518060400160405280600581526020017f534c4f54530000000000000000000000000000000000000000000000000000008152508160039080519060200190620000e5929190620005cf565b508060049080519060200190620000fe929190620005cf565b5050508173ffffffffffffffffffffffffffffffffffffffff1660a08173ffffffffffffffffffffffffffffffffffffffff16815250508073ffffffffffffffffffffffffffffffffffffffff1660808173ffffffffffffffffffffffffffffffffffffffff168152505050506200017d33826200044c60201b60201c565b612710600b81905550620186a0600c81905550620f4240600d8190555061076c6009604051620001ad906200074c565b90815260200160405180910390208190555060196009604051620001d190620007b3565b90815260200160405180910390208190555060196009604051620001f5906200081a565b90815260200160405180910390208190555060196009604051620002199062000881565b908152602001604051809103902081905550606460096040516200023d90620008e8565b90815260200160405180910390208190555061012c600960405162000262906200094f565b908152602001604051809103902081905550606460096040516200028690620009b6565b90815260200160405180910390208190555060196009604051620002aa9062000a1d565b90815260200160405180910390208190555060196009604051620002ce9062000a84565b90815260200160405180910390208190555060196009604051620002f29062000aeb565b90815260200160405180910390208190555060196009604051620003169062000b52565b908152602001604051809103902081905550601960096040516200033a9062000bb9565b908152602001604051809103902081905550601960096040516200035e9062000c20565b9081526020016040518091039020819055506103e86009604051620003839062000c87565b9081526020016040518091039020819055506101906009604051620003a89062000cee565b9081526020016040518091039020819055506101906009604051620003cd9062000d55565b9081526020016040518091039020819055506101906009604051620003f29062000dbc565b90815260200160405180910390208190555033600660006101000a81548173ffffffffffffffffffffffffffffffffffffffff021916908373ffffffffffffffffffffffffffffffffffffffff1602179055505062000f75565b600073ffffffffffffffffffffffffffffffffffffffff168273ffffffffffffffffffffffffffffffffffffffff161415620004bf576040517f08c379a0000000000000000000000000000000000000000000000000000000008152600401620004b69062000e34565b60405180910390fd5b620004d360008383620005c560201b60201c565b8060026000828254620004e7919062000e85565b92505081905550806000808473ffffffffffffffffffffffffffffffffffffffff1673ffffffffffffffffffffffffffffffffffffffff16815260200190815260200160002060008282546200053e919062000e85565b925050819055508173ffffffffffffffffffffffffffffffffffffffff16600073ffffffffffffffffffffffffffffffffffffffff167fddf252ad1be2c89b69c2b068fc378daa952ba7f163c4a11628f55a4df523b3ef83604051620005a5919062000ef3565b60405180910390a3620005c160008383620005ca60201b60201c565b5050565b505050565b505050565b828054620005dd9062000f3f565b90600052602060002090601f0160209004810192826200060157600085556200064d565b82601f106200061c57805160ff19168380011785556200064d565b828001600101855582156200064d579182015b828111156200064c5782518255916020019190600101906200062f565b5b5090506200065c919062000660565b5090565b5b808211156200067b57600081600090555060010162000661565b5090565b600080fd5b6000819050919050565b620006998162000684565b8114620006a557600080fd5b50565b600081519050620006b9816200068e565b92915050565b600060208284031215620006d857620006d76200067f565b5b6000620006e884828501620006a8565b91505092915050565b600081905092915050565b7f3131310000000000000000000000000000000000000000000000000000000000600082015250565b600062000734600383620006f1565b91506200074182620006fc565b600382019050919050565b6000620007598262000725565b9150819050919050565b7f3231310000000000000000000000000000000000000000000000000000000000600082015250565b60006200079b600383620006f1565b9150620007a88262000763565b600382019050919050565b6000620007c0826200078c565b9150819050919050565b7f3231320000000000000000000000000000000000000000000000000000000000600082015250565b600062000802600383620006f1565b91506200080f82620007ca565b600382019050919050565b60006200082782620007f3565b9150819050919050565b7f3231330000000000000000000000000000000000000000000000000000000000600082015250565b600062000869600383620006f1565b9150620008768262000831565b600382019050919050565b60006200088e826200085a565b9150819050919050565b7f3232310000000000000000000000000000000000000000000000000000000000600082015250565b6000620008d0600383620006f1565b9150620008dd8262000898565b600382019050919050565b6000620008f582620008c1565b9150819050919050565b7f3232320000000000000000000000000000000000000000000000000000000000600082015250565b600062000937600383620006f1565b91506200094482620008ff565b600382019050919050565b60006200095c8262000928565b9150819050919050565b7f3232330000000000000000000000000000000000000000000000000000000000600082015250565b60006200099e600383620006f1565b9150620009ab8262000966565b600382019050919050565b6000620009c3826200098f565b9150819050919050565b7f3233310000000000000000000000000000000000000000000000000000000000600082015250565b600062000a05600383620006f1565b915062000a1282620009cd565b600382019050919050565b600062000a2a82620009f6565b9150819050919050565b7f3233320000000000000000000000000000000000000000000000000000000000600082015250565b600062000a6c600383620006f1565b915062000a798262000a34565b600382019050919050565b600062000a918262000a5d565b9150819050919050565b7f3233330000000000000000000000000000000000000000000000000000000000600082015250565b600062000ad3600383620006f1565b915062000ae08262000a9b565b600382019050919050565b600062000af88262000ac4565b9150819050919050565b7f3234310000000000000000000000000000000000000000000000000000000000600082015250565b600062000b3a600383620006f1565b915062000b478262000b02565b600382019050919050565b600062000b5f8262000b2b565b9150819050919050565b7f3234320000000000000000000000000000000000000000000000000000000000600082015250565b600062000ba1600383620006f1565b915062000bae8262000b69565b600382019050919050565b600062000bc68262000b92565b9150819050919050565b7f3234330000000000000000000000000000000000000000000000000000000000600082015250565b600062000c08600383620006f1565b915062000c158262000bd0565b600382019050919050565b600062000c2d8262000bf9565b9150819050919050565b7f3333330000000000000000000000000000000000000000000000000000000000600082015250565b600062000c6f600383620006f1565b915062000c7c8262000c37565b600382019050919050565b600062000c948262000c60565b9150819050919050565b7f3434310000000000000000000000000000000000000000000000000000000000600082015250565b600062000cd6600383620006f1565b915062000ce38262000c9e565b600382019050919050565b600062000cfb8262000cc7565b9150819050919050565b7f3434320000000000000000000000000000000000000000000000000000000000600082015250565b600062000d3d600383620006f1565b915062000d4a8262000d05565b600382019050919050565b600062000d628262000d2e565b9150819050919050565b7f3434330000000000000000000000000000000000000000000000000000000000600082015250565b600062000da4600383620006f1565b915062000db18262000d6c565b600382019050919050565b600062000dc98262000d95565b9150819050919050565b600082825260208201905092915050565b7f45524332303a206d696e7420746f20746865207a65726f206164647265737300600082015250565b600062000e1c601f8362000dd3565b915062000e298262000de4565b602082019050919050565b6000602082019050818103600083015262000e4f8162000e0d565b9050919050565b7f4e487b7100000000000000000000000000000000000000000000000000000000600052601160045260246000fd5b600062000e928262000684565b915062000e9f8362000684565b9250827fffffffffffffffffffffffffffffffffffffffffffffffffffffffffffffffff0382111562000ed75762000ed662000e56565b5b828201905092915050565b62000eed8162000684565b82525050565b600060208201905062000f0a600083018462000ee2565b92915050565b7f4e487b7100000000000000000000000000000000000000000000000000000000600052602260045260246000fd5b6000600282049050600182168062000f5857607f821691505b6020821081141562000f6f5762000f6e62000f10565b5b50919050565b60805160a05161314462000fa960003960008181610b2d0152611eab0152600081816110030152611e6f01526131446000f3fe6080604052600436106101815760003560e01c806394985ddd116100d1578063a9059cbb1161008a578063bf7a704311610064578063bf7a704314610557578063dbdff2c114610582578063dd62ed3e146105ad578063f8b2cb4f146105ea57610181565b8063a9059cbb146104e5578063aa6ca80814610522578063b85987511461052c57610181565b806394985ddd146103f157806395d89b411461041a578063a436862a14610445578063a457c2d714610470578063a5b6ea8f146104ad578063a694fc3a146104c957610181565b806334c5a0441161013e57806370a082311161011857806370a082311461034257806380192f441461037f578063817b1cd21461039b5780638da5cb5b146103c657610181565b806334c5a0441461029d57806339509351146102da57806342619f661461031757610181565b806306fdde0314610186578063095ea7b3146101b157806318160ddd146101ee57806323b872dd146102195780632e17de7814610256578063313ce56714610272575b600080fd5b34801561019257600080fd5b5061019b610627565b6040516101a89190612182565b60405180910390f35b3480156101bd57600080fd5b506101d860048036038101906101d3919061223d565b6106b9565b6040516101e59190612298565b60405180910390f35b3480156101fa57600080fd5b506102036106d7565b60405161021091906122c2565b60405180910390f35b34801561022557600080fd5b50610240600480360381019061023b91906122dd565b6106e1565b60405161024d9190612298565b60405180910390f35b610270600480360381019061026b9190612330565b6107d9565b005b34801561027e57600080fd5b506102876108e2565b6040516102949190612379565b60405180910390f35b3480156102a957600080fd5b506102c460048036038101906102bf9190612394565b6108eb565b6040516102d191906122c2565b60405180910390f35b3480156102e657600080fd5b5061030160048036038101906102fc919061223d565b610953565b60405161030e9190612298565b60405180910390f35b34801561032357600080fd5b5061032c6109ff565b60405161033991906122c2565b60405180910390f35b34801561034e57600080fd5b5061036960048036038101906103649190612394565b610a05565b60405161037691906122c2565b60405180910390f35b61039960048036038101906103949190612330565b610a4d565b005b3480156103a757600080fd5b506103b0610aff565b6040516103bd91906122c2565b60405180910390f35b3480156103d257600080fd5b506103db610b05565b6040516103e891906123d0565b60405180910390f35b3480156103fd57600080fd5b5061041860048036038101906104139190612421565b610b2b565b005b34801561042657600080fd5b5061042f610bc7565b60405161043c9190612182565b60405180910390f35b34801561045157600080fd5b5061045a610c59565b60405161046791906122c2565b60405180910390f35b34801561047c57600080fd5b506104976004803603810190610492919061223d565b610c5f565b6040516104a49190612298565b60405180910390f35b6104c760048036038101906104c29190612330565b610d4a565b005b6104e360048036038101906104de9190612330565b610ef1565b005b3480156104f157600080fd5b5061050c6004803603810190610507919061223d565b610fc3565b6040516105199190612298565b60405180910390f35b61052a610fe1565b005b34801561053857600080fd5b50610541610ff0565b60405161054e91906122c2565b60405180910390f35b34801561056357600080fd5b5061056c610ff6565b60405161057991906122c2565b60405180910390f35b34801561058e57600080fd5b50610597610ffc565b6040516105a49190612470565b60405180910390f35b3480156105b957600080fd5b506105d460048036038101906105cf919061248b565b6110fe565b6040516105e191906122c2565b60405180910390f35b3480156105f657600080fd5b50610611600480360381019061060c9190612394565b611185565b60405161061e91906122c2565b60405180910390f35b606060038054610636906124fa565b80601f0160208091040260200160405190810160405280929190818152602001828054610662906124fa565b80156106af5780601f10610684576101008083540402835291602001916106af565b820191906000526020600020905b81548152906001019060200180831161069257829003601f168201915b5050505050905090565b60006106cd6106c6611197565b848461119f565b6001905092915050565b6000600254905090565b60006106ee84848461136a565b6000600160008673ffffffffffffffffffffffffffffffffffffffff1673ffffffffffffffffffffffffffffffffffffffff1681526020019081526020016000206000610739611197565b73ffffffffffffffffffffffffffffffffffffffff1673ffffffffffffffffffffffffffffffffffffffff168152602001908152602001600020549050828110156107b9576040517f08c379a00000000000000000000000000000000000000000000000000000000081526004016107b09061259e565b60405180910390fd5b6107cd856107c5611197565b85840361119f565b60019150509392505050565b8080600760003373ffffffffffffffffffffffffffffffffffffffff1673ffffffffffffffffffffffffffffffffffffffff16815260200190815260200160002054101561082657600080fd5b81600760003373ffffffffffffffffffffffffffffffffffffffff1673ffffffffffffffffffffffffffffffffffffffff168152602001908152602001600020600082825461087591906125ed565b9250508190555081600a600082825461088e91906125ed565b9250508190555061089f33836115eb565b6108a761174b565b7f78b3bf331196d7d6e64f8da604ed203743021621464e52167c004e1d39eb7350826040516108d691906122c2565b60405180910390a15050565b60006012905090565b6000600860008373ffffffffffffffffffffffffffffffffffffffff1673ffffffffffffffffffffffffffffffffffffffff16815260200190815260200160002060009054906101000a900460ff16600381111561094c5761094b612621565b5b9050919050565b60006109f5610960611197565b84846001600061096e611197565b73ffffffffffffffffffffffffffffffffffffffff1673ffffffffffffffffffffffffffffffffffffffff16815260200190815260200160002060008873ffffffffffffffffffffffffffffffffffffffff1673ffffffffffffffffffffffffffffffffffffffff168152602001908152602001600020546109f09190612650565b61119f565b6001905092915050565b60115481565b60008060008373ffffffffffffffffffffffffffffffffffffffff1673ffffffffffffffffffffffffffffffffffffffff168152602001908152602001600020549050919050565b8080610a5833610a05565b1015610a6357600080fd5b816103e8811015610a7357600080fd5b620f4240811115610a8357600080fd5b610a8d33846119c8565b60006009604051610a9d906126fd565b9081526020016040518091039020549050600060648583610abe9190612712565b610ac8919061279b565b90506000610ad4611b9f565b9050610af73360648385610ae89190612712565b610af2919061279b565b6115eb565b505050505050565b600a5481565b600660009054906101000a900473ffffffffffffffffffffffffffffffffffffffff1681565b7f000000000000000000000000000000000000000000000000000000000000000073ffffffffffffffffffffffffffffffffffffffff163373ffffffffffffffffffffffffffffffffffffffff1614610bb9576040517f08c379a0000000000000000000000000000000000000000000000000000000008152600401610bb090612818565b60405180910390fd5b610bc38282611d2e565b5050565b606060048054610bd6906124fa565b80601f0160208091040260200160405190810160405280929190818152602001828054610c02906124fa565b8015610c4f5780601f10610c2457610100808354040283529160200191610c4f565b820191906000526020600020905b815481529060010190602001808311610c3257829003601f168201915b5050505050905090565b600d5481565b60008060016000610c6e611197565b73ffffffffffffffffffffffffffffffffffffffff1673ffffffffffffffffffffffffffffffffffffffff16815260200190815260200160002060008573ffffffffffffffffffffffffffffffffffffffff1673ffffffffffffffffffffffffffffffffffffffff16815260200190815260200160002054905082811015610d2b576040517f08c379a0000000000000000000000000000000000000000000000000000000008152600401610d22906128aa565b60405180910390fd5b610d3f610d36611197565b8585840361119f565b600191505092915050565b8080610d5533610a05565b1015610d6057600080fd5b816103e8811015610d7057600080fd5b620f4240811115610d8057600080fd5b610d8a33846119c8565b610d92610ffc565b50600060016004600a601154610da8919061279b565b610db291906128ca565b610dbc9190612650565b90506000600160046064601154610dd3919061279b565b610ddd91906128ca565b610de79190612650565b90506000600160036103e8601154610dff919061279b565b610e0991906128ca565b610e139190612650565b90506000610e2084611d39565b90506000610e2d84611d39565b90506000610e3a84611d39565b9050828282604051602001610e519392919061292c565b604051602081830303815290604052600e9080519060200190610e75929190612046565b5060006009600e604051610e8991906129f1565b9081526020016040518091039020549050600060648b83610eaa9190612712565b610eb4919061279b565b90506000610ec0611b9f565b9050610ee33360648385610ed49190612712565b610ede919061279b565b6115eb565b505050505050505050505050565b8080610efc33610a05565b1015610f0757600080fd5b610f1133836119c8565b81600760003373ffffffffffffffffffffffffffffffffffffffff1673ffffffffffffffffffffffffffffffffffffffff1681526020019081526020016000206000828254610f609190612650565b9250508190555081600a6000828254610f799190612650565b92505081905550610f8861174b565b7fbdb8b69f7c29f784a0e4c7dd5183176d3cc27efb5f7c2b7b8fe0ed2d35d9a83682604051610fb791906122c2565b60405180910390a15050565b6000610fd7610fd0611197565b848461136a565b6001905092915050565b610fee33620f42406115eb565b565b600c5481565b600b5481565b60006010547f000000000000000000000000000000000000000000000000000000000000000073ffffffffffffffffffffffffffffffffffffffff166370a08231306040518263ffffffff1660e01b815260040161105a91906123d0565b60206040518083038186803b15801561107257600080fd5b505afa158015611086573d6000803e3d6000fd5b505050506040513d601f19601f820116820180604052508101906110aa9190612a1d565b10156110eb576040517f08c379a00000000000000000000000000000000000000000000000000000000081526004016110e290612abc565b60405180910390fd5b6110f9600f54601054611e6b565b905090565b6000600160008473ffffffffffffffffffffffffffffffffffffffff1673ffffffffffffffffffffffffffffffffffffffff16815260200190815260200160002060008373ffffffffffffffffffffffffffffffffffffffff1673ffffffffffffffffffffffffffffffffffffffff16815260200190815260200160002054905092915050565b600061119082610a05565b9050919050565b600033905090565b600073ffffffffffffffffffffffffffffffffffffffff168373ffffffffffffffffffffffffffffffffffffffff16141561120f576040517f08c379a000000000000000000000000000000000000000000000000000000000815260040161120690612b4e565b60405180910390fd5b600073ffffffffffffffffffffffffffffffffffffffff168273ffffffffffffffffffffffffffffffffffffffff16141561127f576040517f08c379a000000000000000000000000000000000000000000000000000000000815260040161127690612be0565b60405180910390fd5b80600160008573ffffffffffffffffffffffffffffffffffffffff1673ffffffffffffffffffffffffffffffffffffffff16815260200190815260200160002060008473ffffffffffffffffffffffffffffffffffffffff1673ffffffffffffffffffffffffffffffffffffffff168152602001908152602001600020819055508173ffffffffffffffffffffffffffffffffffffffff168373ffffffffffffffffffffffffffffffffffffffff167f8c5be1e5ebec7d5bd14f71427d1e84f3dd0314c0f7b2291e5b200ac8c7c3b9258360405161135d91906122c2565b60405180910390a3505050565b600073ffffffffffffffffffffffffffffffffffffffff168373ffffffffffffffffffffffffffffffffffffffff1614156113da576040517f08c379a00000000000000000000000000000000000000000000000000000000081526004016113d190612c72565b60405180910390fd5b600073ffffffffffffffffffffffffffffffffffffffff168273ffffffffffffffffffffffffffffffffffffffff16141561144a576040517f08c379a000000000000000000000000000000000000000000000000000000000815260040161144190612d04565b60405180910390fd5b611455838383611fcd565b60008060008573ffffffffffffffffffffffffffffffffffffffff1673ffffffffffffffffffffffffffffffffffffffff168152602001908152602001600020549050818110156114db576040517f08c379a00000000000000000000000000000000000000000000000000000000081526004016114d290612d96565b60405180910390fd5b8181036000808673ffffffffffffffffffffffffffffffffffffffff1673ffffffffffffffffffffffffffffffffffffffff16815260200190815260200160002081905550816000808573ffffffffffffffffffffffffffffffffffffffff1673ffffffffffffffffffffffffffffffffffffffff168152602001908152602001600020600082825461156e9190612650565b925050819055508273ffffffffffffffffffffffffffffffffffffffff168473ffffffffffffffffffffffffffffffffffffffff167fddf252ad1be2c89b69c2b068fc378daa952ba7f163c4a11628f55a4df523b3ef846040516115d291906122c2565b60405180910390a36115e5848484611fd2565b50505050565b600073ffffffffffffffffffffffffffffffffffffffff168273ffffffffffffffffffffffffffffffffffffffff16141561165b576040517f08c379a000000000000000000000000000000000000000000000000000000000815260040161165290612e02565b60405180910390fd5b61166760008383611fcd565b80600260008282546116799190612650565b92505081905550806000808473ffffffffffffffffffffffffffffffffffffffff1673ffffffffffffffffffffffffffffffffffffffff16815260200190815260200160002060008282546116ce9190612650565b925050819055508173ffffffffffffffffffffffffffffffffffffffff16600073ffffffffffffffffffffffffffffffffffffffff167fddf252ad1be2c89b69c2b068fc378daa952ba7f163c4a11628f55a4df523b3ef8360405161173391906122c2565b60405180910390a361174760008383611fd2565b5050565b6000600860003373ffffffffffffffffffffffffffffffffffffffff1673ffffffffffffffffffffffffffffffffffffffff16815260200190815260200160002060006101000a81548160ff021916908360038111156117ae576117ad612621565b5b0217905550600b54600760003373ffffffffffffffffffffffffffffffffffffffff1673ffffffffffffffffffffffffffffffffffffffff1681526020019081526020016000205410611864576001600860003373ffffffffffffffffffffffffffffffffffffffff1673ffffffffffffffffffffffffffffffffffffffff16815260200190815260200160002060006101000a81548160ff0219169083600381111561185e5761185d612621565b5b02179055505b600c54600760003373ffffffffffffffffffffffffffffffffffffffff1673ffffffffffffffffffffffffffffffffffffffff1681526020019081526020016000205410611915576002600860003373ffffffffffffffffffffffffffffffffffffffff1673ffffffffffffffffffffffffffffffffffffffff16815260200190815260200160002060006101000a81548160ff0219169083600381111561190f5761190e612621565b5b02179055505b600d54600760003373ffffffffffffffffffffffffffffffffffffffff1673ffffffffffffffffffffffffffffffffffffffff16815260200190815260200160002054106119c6576003600860003373ffffffffffffffffffffffffffffffffffffffff1673ffffffffffffffffffffffffffffffffffffffff16815260200190815260200160002060006101000a81548160ff021916908360038111156119c0576119bf612621565b5b02179055505b565b600073ffffffffffffffffffffffffffffffffffffffff168273ffffffffffffffffffffffffffffffffffffffff161415611a38576040517f08c379a0000000000000000000000000000000000000000000000000000000008152600401611a2f90612e94565b60405180910390fd5b611a4482600083611fcd565b60008060008473ffffffffffffffffffffffffffffffffffffffff1673ffffffffffffffffffffffffffffffffffffffff16815260200190815260200160002054905081811015611aca576040517f08c379a0000000000000000000000000000000000000000000000000000000008152600401611ac190612f26565b60405180910390fd5b8181036000808573ffffffffffffffffffffffffffffffffffffffff1673ffffffffffffffffffffffffffffffffffffffff168152602001908152602001600020819055508160026000828254611b2191906125ed565b92505081905550600073ffffffffffffffffffffffffffffffffffffffff168373ffffffffffffffffffffffffffffffffffffffff167fddf252ad1be2c89b69c2b068fc378daa952ba7f163c4a11628f55a4df523b3ef84604051611b8691906122c2565b60405180910390a3611b9a83600084611fd2565b505050565b6000600380811115611bb457611bb3612621565b5b600860003373ffffffffffffffffffffffffffffffffffffffff1673ffffffffffffffffffffffffffffffffffffffff16815260200190815260200160002060009054906101000a900460ff166003811115611c1357611c12612621565b5b1415611c225760639050611d2b565b60016003811115611c3657611c35612621565b5b600860003373ffffffffffffffffffffffffffffffffffffffff1673ffffffffffffffffffffffffffffffffffffffff16815260200190815260200160002060009054906101000a900460ff166003811115611c9557611c94612621565b5b1415611ca45760619050611d2b565b60026003811115611cb857611cb7612621565b5b600860003373ffffffffffffffffffffffffffffffffffffffff1673ffffffffffffffffffffffffffffffffffffffff16815260200190815260200160002060009054906101000a900460ff166003811115611d1757611d16612621565b5b1415611d265760629050611d2b565b606090505b90565b806011819055505050565b60606001821415611d81576040518060400160405280600181526020017f31000000000000000000000000000000000000000000000000000000000000008152509050611e66565b6002821415611dc7576040518060400160405280600181526020017f32000000000000000000000000000000000000000000000000000000000000008152509050611e66565b6003821415611e0d576040518060400160405280600181526020017f33000000000000000000000000000000000000000000000000000000000000008152509050611e66565b6004821415611e53576040518060400160405280600181526020017f34000000000000000000000000000000000000000000000000000000000000008152509050611e66565b6040518060200160405280600081525090505b919050565b60007f000000000000000000000000000000000000000000000000000000000000000073ffffffffffffffffffffffffffffffffffffffff16634000aea07f000000000000000000000000000000000000000000000000000000000000000084866000604051602001611edf929190612f46565b6040516020818303038152906040526040518463ffffffff1660e01b8152600401611f0c93929190612fc4565b602060405180830381600087803b158015611f2657600080fd5b505af1158015611f3a573d6000803e3d6000fd5b505050506040513d601f19601f82011682018060405250810190611f5e919061302e565b506000611f81846000306005600089815260200190815260200160002054611fd7565b905060016005600086815260200190815260200160002054611fa39190612650565b6005600086815260200190815260200160002081905550611fc48482612013565b91505092915050565b505050565b505050565b600084848484604051602001611ff0949392919061305b565b6040516020818303038152906040528051906020012060001c9050949350505050565b600082826040516020016120289291906130e2565b60405160208183030381529060405280519060200120905092915050565b828054612052906124fa565b90600052602060002090601f01602090048101928261207457600085556120bb565b82601f1061208d57805160ff19168380011785556120bb565b828001600101855582156120bb579182015b828111156120ba57825182559160200191906001019061209f565b5b5090506120c891906120cc565b5090565b5b808211156120e55760008160009055506001016120cd565b5090565b600081519050919050565b600082825260208201905092915050565b60005b83811015612123578082015181840152602081019050612108565b83811115612132576000848401525b50505050565b6000601f19601f8301169050919050565b6000612154826120e9565b61215e81856120f4565b935061216e818560208601612105565b61217781612138565b840191505092915050565b6000602082019050818103600083015261219c8184612149565b905092915050565b600080fd5b600073ffffffffffffffffffffffffffffffffffffffff82169050919050565b60006121d4826121a9565b9050919050565b6121e4816121c9565b81146121ef57600080fd5b50565b600081359050612201816121db565b92915050565b6000819050919050565b61221a81612207565b811461222557600080fd5b50565b60008135905061223781612211565b92915050565b60008060408385031215612254576122536121a4565b5b6000612262858286016121f2565b925050602061227385828601612228565b9150509250929050565b60008115159050919050565b6122928161227d565b82525050565b60006020820190506122ad6000830184612289565b92915050565b6122bc81612207565b82525050565b60006020820190506122d760008301846122b3565b92915050565b6000806000606084860312156122f6576122f56121a4565b5b6000612304868287016121f2565b9350506020612315868287016121f2565b925050604061232686828701612228565b9150509250925092565b600060208284031215612346576123456121a4565b5b600061235484828501612228565b91505092915050565b600060ff82169050919050565b6123738161235d565b82525050565b600060208201905061238e600083018461236a565b92915050565b6000602082840312156123aa576123a96121a4565b5b60006123b8848285016121f2565b91505092915050565b6123ca816121c9565b82525050565b60006020820190506123e560008301846123c1565b92915050565b6000819050919050565b6123fe816123eb565b811461240957600080fd5b50565b60008135905061241b816123f5565b92915050565b60008060408385031215612438576124376121a4565b5b60006124468582860161240c565b925050602061245785828601612228565b9150509250929050565b61246a816123eb565b82525050565b60006020820190506124856000830184612461565b92915050565b600080604083850312156124a2576124a16121a4565b5b60006124b0858286016121f2565b92505060206124c1858286016121f2565b9150509250929050565b7f4e487b7100000000000000000000000000000000000000000000000000000000600052602260045260246000fd5b6000600282049050600182168061251257607f821691505b60208210811415612526576125256124cb565b5b50919050565b7f45524332303a207472616e7366657220616d6f756e742065786365656473206160008201527f6c6c6f77616e6365000000000000000000000000000000000000000000000000602082015250565b60006125886028836120f4565b91506125938261252c565b604082019050919050565b600060208201905081810360008301526125b78161257b565b9050919050565b7f4e487b7100000000000000000000000000000000000000000000000000000000600052601160045260246000fd5b60006125f882612207565b915061260383612207565b925082821015612616576126156125be565b5b828203905092915050565b7f4e487b7100000000000000000000000000000000000000000000000000000000600052602160045260246000fd5b600061265b82612207565b915061266683612207565b9250827fffffffffffffffffffffffffffffffffffffffffffffffffffffffffffffffff0382111561269b5761269a6125be565b5b828201905092915050565b600081905092915050565b7f3131310000000000000000000000000000000000000000000000000000000000600082015250565b60006126e76003836126a6565b91506126f2826126b1565b600382019050919050565b6000612708826126da565b9150819050919050565b600061271d82612207565b915061272883612207565b9250817fffffffffffffffffffffffffffffffffffffffffffffffffffffffffffffffff0483118215151615612761576127606125be565b5b828202905092915050565b7f4e487b7100000000000000000000000000000000000000000000000000000000600052601260045260246000fd5b60006127a682612207565b91506127b183612207565b9250826127c1576127c061276c565b5b828204905092915050565b7f4f6e6c7920565246436f6f7264696e61746f722063616e2066756c66696c6c00600082015250565b6000612802601f836120f4565b915061280d826127cc565b602082019050919050565b60006020820190508181036000830152612831816127f5565b9050919050565b7f45524332303a2064656372656173656420616c6c6f77616e63652062656c6f7760008201527f207a65726f000000000000000000000000000000000000000000000000000000602082015250565b60006128946025836120f4565b915061289f82612838565b604082019050919050565b600060208201905081810360008301526128c381612887565b9050919050565b60006128d582612207565b91506128e083612207565b9250826128f0576128ef61276c565b5b828206905092915050565b6000612906826120e9565b61291081856126a6565b9350612920818560208601612105565b80840191505092915050565b600061293882866128fb565b915061294482856128fb565b915061295082846128fb565b9150819050949350505050565b60008190508160005260206000209050919050565b6000815461297f816124fa565b61298981866126a6565b945060018216600081146129a457600181146129b5576129e8565b60ff198316865281860193506129e8565b6129be8561295d565b60005b838110156129e0578154818901526001820191506020810190506129c1565b838801955050505b50505092915050565b60006129fd8284612972565b915081905092915050565b600081519050612a1781612211565b92915050565b600060208284031215612a3357612a326121a4565b5b6000612a4184828501612a08565b91505092915050565b7f4e6f7420656e6f756768204c494e4b202d2066696c6c20636f6e74726163742060008201527f7769746820666175636574000000000000000000000000000000000000000000602082015250565b6000612aa6602b836120f4565b9150612ab182612a4a565b604082019050919050565b60006020820190508181036000830152612ad581612a99565b9050919050565b7f45524332303a20617070726f76652066726f6d20746865207a65726f2061646460008201527f7265737300000000000000000000000000000000000000000000000000000000602082015250565b6000612b386024836120f4565b9150612b4382612adc565b604082019050919050565b60006020820190508181036000830152612b6781612b2b565b9050919050565b7f45524332303a20617070726f766520746f20746865207a65726f20616464726560008201527f7373000000000000000000000000000000000000000000000000000000000000602082015250565b6000612bca6022836120f4565b9150612bd582612b6e565b604082019050919050565b60006020820190508181036000830152612bf981612bbd565b9050919050565b7f45524332303a207472616e736665722066726f6d20746865207a65726f20616460008201527f6472657373000000000000000000000000000000000000000000000000000000602082015250565b6000612c5c6025836120f4565b9150612c6782612c00565b604082019050919050565b60006020820190508181036000830152612c8b81612c4f565b9050919050565b7f45524332303a207472616e7366657220746f20746865207a65726f206164647260008201527f6573730000000000000000000000000000000000000000000000000000000000602082015250565b6000612cee6023836120f4565b9150612cf982612c92565b604082019050919050565b60006020820190508181036000830152612d1d81612ce1565b9050919050565b7f45524332303a207472616e7366657220616d6f756e742065786365656473206260008201527f616c616e63650000000000000000000000000000000000000000000000000000602082015250565b6000612d806026836120f4565b9150612d8b82612d24565b604082019050919050565b60006020820190508181036000830152612daf81612d73565b9050919050565b7f45524332303a206d696e7420746f20746865207a65726f206164647265737300600082015250565b6000612dec601f836120f4565b9150612df782612db6565b602082019050919050565b60006020820190508181036000830152612e1b81612ddf565b9050919050565b7f45524332303a206275726e2066726f6d20746865207a65726f2061646472657360008201527f7300000000000000000000000000000000000000000000000000000000000000602082015250565b6000612e7e6021836120f4565b9150612e8982612e22565b604082019050919050565b60006020820190508181036000830152612ead81612e71565b9050919050565b7f45524332303a206275726e20616d6f756e7420657863656564732062616c616e60008201527f6365000000000000000000000000000000000000000000000000000000000000602082015250565b6000612f106022836120f4565b9150612f1b82612eb4565b604082019050919050565b60006020820190508181036000830152612f3f81612f03565b9050919050565b6000604082019050612f5b6000830185612461565b612f6860208301846122b3565b9392505050565b600081519050919050565b600082825260208201905092915050565b6000612f9682612f6f565b612fa08185612f7a565b9350612fb0818560208601612105565b612fb981612138565b840191505092915050565b6000606082019050612fd960008301866123c1565b612fe660208301856122b3565b8181036040830152612ff88184612f8b565b9050949350505050565b61300b8161227d565b811461301657600080fd5b50565b60008151905061302881613002565b92915050565b600060208284031215613044576130436121a4565b5b600061305284828501613019565b91505092915050565b60006080820190506130706000830187612461565b61307d60208301866122b3565b61308a60408301856123c1565b61309760608301846122b3565b95945050505050565b6000819050919050565b6130bb6130b6826123eb565b6130a0565b82525050565b6000819050919050565b6130dc6130d782612207565b6130c1565b82525050565b60006130ee82856130aa565b6020820191506130fe82846130cb565b602082019150819050939250505056fea2646970667358221220e41af43c21eeed218612f543ef476ac44317aae8f63de0587bb031fbee51056a64736f6c63430008090033",
  "immutableReferences": {
    "73": [
      {
        "length": 32,
        "start": 4099
      },
      {
        "length": 32,
        "start": 7791
      }
    ],
    "75": [
      {
        "length": 32,
        "start": 2861
      },
      {
        "length": 32,
        "start": 7851
      }
    ]
  },
  "source": "// contracts/GLDToken.sol\n// SPDX-License-Identifier: MIT\npragma solidity ^0.8.0;\n\nimport \"@openzeppelin/contracts/token/ERC20/ERC20.sol\";\nimport \"@chainlink/contracts/src/v0.8/VRFConsumerBase.sol\";\n\n/// @title Slot Machine\n/// @author Aslan Tashtanov\n/// @notice You can use this contract for getting tokens, staking and spinning\n/// @dev Only stake, unstake, getFunds and spin are tested\n/// @custom:experimental this is an experimental contract\ncontract Slots is ERC20, VRFConsumerBase {\n    /// Slot machine variables\n    address public owner;\n    enum MembershipLevel { None, Bronze, Silver, Gold }\n    mapping (address => uint256) private staked;\n    mapping (address => MembershipLevel) private memberships;\n    mapping (string => uint256) private combinations;\n    uint256 public totalStaked;\n\n    /// membership level thresholds\n    uint256 public bronzeMembership;\n    uint256 public silverMembership;\n    uint256 public goldMembership;\n\n    /// final combination that is set after random\n    string finalCombination;\n\n    // VRFConsumerBase variables\n    bytes32 internal keyHash;\n    uint256 internal fee;\n    \n    uint256 public randomResult;\n    \n    constructor(uint256 initialSupply) ERC20(\"Slots\", \"SLOTS\") \n        VRFConsumerBase(\n            0xdD3782915140c8f3b190B5D67eAc6dc5760C46E9,\n            0xa36085F69e2889c224210F603D836748e7dC0088\n        ) \n    {\n        _mint(msg.sender, initialSupply);\n        bronzeMembership = 10000;\n        silverMembership = 100000;\n        goldMembership = 1000000;\n\n\n        \n        /// @notice slot machine has 3 reels: [1,2,3,4,2] , [1,2,3,4,3] , [1,2,3,2]\n        /// @notice Total unique combinations: 5 * 5 * 4 = 100\n        /// @dev Total sum of payouts for all cimbinations: 99\n        combinations[\"111\"] = 1900;\n        combinations[\"211\"] = 25;\n        combinations[\"212\"] = 25;\n        combinations[\"213\"] = 25;\n        combinations[\"221\"] = 100;\n        combinations[\"222\"] = 300;\n        combinations[\"223\"] = 100;\n        combinations[\"231\"] = 25;\n        combinations[\"232\"] = 25;\n        combinations[\"233\"] = 25;\n        combinations[\"241\"] = 25;\n        combinations[\"242\"] = 25;\n        combinations[\"243\"] = 25;\n        combinations[\"333\"] = 1000;\n        combinations[\"441\"] = 400;\n        combinations[\"442\"] = 400;\n        combinations[\"443\"] = 400;\n\n        owner = msg.sender;\n    }\n\n    /// @dev uses Chainlink VRC Coordinator to get random number\n    function getRandomNumber() public returns (bytes32 requestId) {\n        require(LINK.balanceOf(address(this)) >= fee, \"Not enough LINK - fill contract with faucet\");\n        return requestRandomness(keyHash, fee);\n    }\n    \n    /// @dev Callback function used by VRF Coordinator\n    function fulfillRandomness(bytes32 requestId, uint256 randomness) internal override {\n        randomResult = randomness;\n    }\n\n    /// Events\n    event LogStake(uint256 amount);\n    event LogUnstake(uint256 amount);\n    event LogSpin(uint256 amount);\n    \n    /// Modifiers\n    modifier enoughFunds(uint256 _amount) {\n        require(super.balanceOf(msg.sender) >= _amount);\n        _;\n    }\n    modifier enoughStaked(uint256 _amount) {\n        require(staked[msg.sender] >= _amount);\n        _;\n    }\n    modifier minMaxAmount(uint256 _amount) {\n        require(_amount >= 1000);\n        require(_amount <= 1000000);\n        _;\n    }\n    modifier isOwner(address _address) {\n        require (owner == _address);\n        _;\n    }\n    /// Sets the membership of a user by checking their staked amount\n    function setMembership() private {\n        memberships[msg.sender] = MembershipLevel.None;\n        if (staked[msg.sender] >= bronzeMembership) {\n            memberships[msg.sender] = MembershipLevel.Bronze;\n        }\n        if (staked[msg.sender] >= silverMembership) {\n            memberships[msg.sender] = MembershipLevel.Silver;\n        }\n        if (staked[msg.sender] >= goldMembership) {\n            memberships[msg.sender] = MembershipLevel.Gold;\n        }\n    }\n    \n    /// @return level of membership of the given address\n    function getMembership(address _member) public view returns (uint level) {\n        return uint(memberships[_member]);\n    }\n\n    /// @return balance of the given address\n    function getBalance(address _member) public view returns (uint256 balance) {\n        return super.balanceOf(_member);\n    }\n\n    /// @return membership multiplier of the given address\n    /// membership levels are gained if you stake funds\n    function getMembershipMultiplier() private view returns (uint256) {\n        if (memberships[msg.sender] == MembershipLevel.Gold) return 99;\n        if (memberships[msg.sender] == MembershipLevel.Bronze) return 97;\n        if (memberships[msg.sender] == MembershipLevel.Silver) return 98;\n        else return 96;\n    }\n\n    /// @notice burns the funds and adds those funds to the staked mapping\n    function stake(uint256 amount) public payable enoughFunds(amount) {\n        _burn(msg.sender, amount);\n        staked[msg.sender] += amount;\n        totalStaked += amount;\n        setMembership();\n        emit LogStake(amount);\n    }\n\n    /// @notice removes the funds from staked mapping and mints those funds back to the user\n    function unstake(uint256 amount) public payable enoughStaked(amount) {\n        staked[msg.sender] -= amount;\n        totalStaked -= amount;\n        _mint(msg.sender, amount);\n        setMembership();\n        emit LogUnstake(amount);\n    }\n\n    /// uint to string converter for the mininum numbers used\n    function convertToCombination(uint a) private pure returns (string memory) {\n        if (a == 1) return \"1\";\n        if (a == 2) return \"2\";\n        if (a == 3) return \"3\";\n        if (a == 4) return \"4\";\n        else return \"\";\n    }\n\n    /// @notice assumes randomResult is more than 4 digits long\n    /**\n        Randomly selects a number for each reel. Reel 1 and 2 contains numbers 1-4.\n        Reel 3 contains numbers 1-3. Numbers are converted to strings and concatenated.\n        Then we check the combinations mapping to find the multiplier. \n        The final winning amount is amount * multiplier * membership bonus\n     */\n    function spin(uint256 amount) public payable enoughFunds(amount) minMaxAmount(amount) {\n        _burn(msg.sender, amount);\n\n        getRandomNumber();\n        uint a = (randomResult / 10) % 4 + 1;\n        uint b = (randomResult / 100) % 4 + 1;\n        uint c = (randomResult / 1000) % 3 + 1;\n\n        string memory first = convertToCombination(a);\n        string memory second = convertToCombination(b);\n        string memory third = convertToCombination(c);\n\n        finalCombination = string(abi.encodePacked(first, second, third));\n        \n        uint256 win = combinations[finalCombination];\n        uint256 winAmount = win * amount / 100;\n        uint256 multiplier = getMembershipMultiplier();\n        _mint(msg.sender, winAmount * multiplier / 100);\n    }\n\n\n    /// gives the user free tokens to play with\n    function getTokens() public payable {\n        _mint(msg.sender, 1000000);\n    }\n\n\n    /// @dev spinOwner is used for unit testing\n    function spinOwner(uint256 amount) public payable enoughFunds(amount) minMaxAmount(amount) {\n        _burn(msg.sender, amount);\n        uint256 win = combinations[\"111\"];\n        uint256 winAmount = win * amount / 100;\n        uint256 multiplier = getMembershipMultiplier();\n        _mint(msg.sender, winAmount * multiplier / 100);\n    }\n}\n",
  "sourcePath": "/Users/aslan.tashtanov@coinbase.com/Desktop/blockchain development bootcamp/blockchain-developer-bootcamp-final-project/contracts/Slots.sol",
  "compiler": {
    "name": "solc",
    "version": "0.8.9+commit.e5eed63a.Emscripten.clang"
  },
  "schemaVersion": "3.4.3",
  "updatedAt": "2021-11-30T13:19:11.843Z",
  "networkType": "ethereum",
  "devdoc": {
    "author": "Aslan Tashtanov",
    "custom:experimental": "this is an experimental contract",
    "details": "Only stake, unstake, getFunds and spin are tested",
    "kind": "dev",
    "methods": {
      "allowance(address,address)": {
        "details": "See {IERC20-allowance}."
      },
      "approve(address,uint256)": {
        "details": "See {IERC20-approve}. Requirements: - `spender` cannot be the zero address."
      },
      "balanceOf(address)": {
        "details": "See {IERC20-balanceOf}."
      },
      "decimals()": {
        "details": "Returns the number of decimals used to get its user representation. For example, if `decimals` equals `2`, a balance of `505` tokens should be displayed to a user as `5.05` (`505 / 10 ** 2`). Tokens usually opt for a value of 18, imitating the relationship between Ether and Wei. This is the value {ERC20} uses, unless this function is overridden; NOTE: This information is only used for _display_ purposes: it in no way affects any of the arithmetic of the contract, including {IERC20-balanceOf} and {IERC20-transfer}."
      },
      "decreaseAllowance(address,uint256)": {
        "details": "Atomically decreases the allowance granted to `spender` by the caller. This is an alternative to {approve} that can be used as a mitigation for problems described in {IERC20-approve}. Emits an {Approval} event indicating the updated allowance. Requirements: - `spender` cannot be the zero address. - `spender` must have allowance for the caller of at least `subtractedValue`."
      },
      "getBalance(address)": {
        "returns": {
          "balance": "of the given address"
        }
      },
      "getMembership(address)": {
        "returns": {
          "level": "of membership of the given address"
        }
      },
      "getRandomNumber()": {
        "details": "uses Chainlink VRC Coordinator to get random number"
      },
      "increaseAllowance(address,uint256)": {
        "details": "Atomically increases the allowance granted to `spender` by the caller. This is an alternative to {approve} that can be used as a mitigation for problems described in {IERC20-approve}. Emits an {Approval} event indicating the updated allowance. Requirements: - `spender` cannot be the zero address."
      },
      "name()": {
        "details": "Returns the name of the token."
      },
      "spinOwner(uint256)": {
        "details": "spinOwner is used for unit testing"
      },
      "symbol()": {
        "details": "Returns the symbol of the token, usually a shorter version of the name."
      },
      "totalSupply()": {
        "details": "See {IERC20-totalSupply}."
      },
      "transfer(address,uint256)": {
        "details": "See {IERC20-transfer}. Requirements: - `recipient` cannot be the zero address. - the caller must have a balance of at least `amount`."
      },
      "transferFrom(address,address,uint256)": {
        "details": "See {IERC20-transferFrom}. Emits an {Approval} event indicating the updated allowance. This is not required by the EIP. See the note at the beginning of {ERC20}. Requirements: - `sender` and `recipient` cannot be the zero address. - `sender` must have a balance of at least `amount`. - the caller must have allowance for ``sender``'s tokens of at least `amount`."
      }
    },
    "title": "Slot Machine",
    "version": 1
  },
  "userdoc": {
    "events": {
      "LogStake(uint256)": {
        "notice": "Events"
      }
    },
    "kind": "user",
    "methods": {
      "bronzeMembership()": {
        "notice": "membership level thresholds"
      },
      "getTokens()": {
        "notice": "gives the user free tokens to play with"
      },
      "owner()": {
        "notice": "Slot machine variables"
      },
      "spin(uint256)": {
        "notice": "Randomly selects a number for each reel. Reel 1 and 2 contains numbers 1-4. Reel 3 contains numbers 1-3. Numbers are converted to strings and concatenated. Then we check the combinations mapping to find the multiplier.  The final winning amount is amount * multiplier * membership bonus"
      },
      "stake(uint256)": {
        "notice": "burns the funds and adds those funds to the staked mapping"
      },
      "unstake(uint256)": {
        "notice": "removes the funds from staked mapping and mints those funds back to the user"
      }
    },
    "notice": "You can use this contract for getting tokens, staking and spinning",
    "version": 1
  }
}